{
  "contractName": "FeesLib",
  "abi": [
    {
      "constant": true,
      "inputs": [
        {
          "internalType": "uint256",
          "name": "amount",
          "type": "uint256"
        }
      ],
      "name": "convert",
      "outputs": [
        {
          "internalType": "uint256",
          "name": "feesAmount",
          "type": "uint256"
        }
      ],
      "payable": false,
      "stateMutability": "pure",
      "type": "function"
    }
  ],
  "bytecode": "0x60b6610025600b82828239805160001a60731461001857fe5b30600052607381538281f3fe730000000000000000000000000000000000000000301460806040526004361060335760003560e01c8063a3908e1b146038575b600080fd5b606160048036036020811015604c57600080fd5b81019080803590602001909291905050506077565b6040518082815260200191505060405180910390f35b600081905091905056fea265627a7a72315820d2f1317ec14be8d9749b3ef1699c8fb8ce5862c08e8908911a3dd06d28fac43964736f6c63430005100032",
  "source": "pragma solidity >=0.4.25 <0.7.0;\n\nlibrary FeesLib{\n\n\tfunction convert(uint amount) public pure returns (uint feesAmount)\n\t{\n\t\treturn amount;\n\t}\n}\n",
  "sourcePath": "D:\\Users\\boche\\Documents\\Professionnel\\Cours\\Mastere 2\\Blockchain\\firstTest\\MetaCoin\\contracts\\FeesLib.sol",
  "compiler": {
    "name": "solc",
    "version": "0.5.16+commit.9c3226ce.Emscripten.clang"
  },
  "schemaVersion": "3.0.23",
  "updatedAt": "2020-02-13T18:03:14.762Z",
  "devdoc": {
    "methods": {}
  },
  "userdoc": {
    "methods": {}
  }
}